{
  "_format": "hh-sol-artifact-1",
  "contractName": "LeverV1ERC721L",
  "sourceName": "contracts/LeverV1ERC721L.sol",
  "abi": [
    {
      "inputs": [
        {
          "internalType": "string",
          "name": "name",
          "type": "string"
        },
        {
          "internalType": "string",
          "name": "symbol",
          "type": "string"
        },
        {
          "internalType": "address",
          "name": "_pool",
          "type": "address"
        }
      ],
      "stateMutability": "nonpayable",
      "type": "constructor"
    },
    {
      "anonymous": false,
      "inputs": [
        {
          "indexed": true,
          "internalType": "address",
          "name": "owner",
          "type": "address"
        },
        {
          "indexed": true,
          "internalType": "address",
          "name": "approved",
          "type": "address"
        },
        {
          "indexed": true,
          "internalType": "uint256",
          "name": "tokenId",
          "type": "uint256"
        }
      ],
      "name": "Approval",
      "type": "event"
    },
    {
      "anonymous": false,
      "inputs": [
        {
          "indexed": true,
          "internalType": "address",
          "name": "owner",
          "type": "address"
        },
        {
          "indexed": true,
          "internalType": "address",
          "name": "operator",
          "type": "address"
        },
        {
          "indexed": false,
          "internalType": "bool",
          "name": "approved",
          "type": "bool"
        }
      ],
      "name": "ApprovalForAll",
      "type": "event"
    },
    {
      "anonymous": false,
      "inputs": [
        {
          "indexed": false,
          "internalType": "uint256",
          "name": "tokenId",
          "type": "uint256"
        }
      ],
      "name": "Burn",
      "type": "event"
    },
    {
      "anonymous": false,
      "inputs": [
        {
          "indexed": true,
          "internalType": "address",
          "name": "account",
          "type": "address"
        },
        {
          "indexed": false,
          "internalType": "uint256",
          "name": "tokenId",
          "type": "uint256"
        }
      ],
      "name": "Mint",
      "type": "event"
    },
    {
      "anonymous": false,
      "inputs": [
        {
          "indexed": true,
          "internalType": "address",
          "name": "from",
          "type": "address"
        },
        {
          "indexed": true,
          "internalType": "address",
          "name": "to",
          "type": "address"
        },
        {
          "indexed": true,
          "internalType": "uint256",
          "name": "tokenId",
          "type": "uint256"
        }
      ],
      "name": "Transfer",
      "type": "event"
    },
    {
      "inputs": [
        {
          "internalType": "address",
          "name": "to",
          "type": "address"
        },
        {
          "internalType": "uint256",
          "name": "tokenId",
          "type": "uint256"
        }
      ],
      "name": "approve",
      "outputs": [],
      "stateMutability": "nonpayable",
      "type": "function"
    },
    {
      "inputs": [
        {
          "internalType": "address",
          "name": "owner",
          "type": "address"
        }
      ],
      "name": "balanceOf",
      "outputs": [
        {
          "internalType": "uint256",
          "name": "",
          "type": "uint256"
        }
      ],
      "stateMutability": "view",
      "type": "function"
    },
    {
      "inputs": [
        {
          "internalType": "uint256",
          "name": "tokenId",
          "type": "uint256"
        }
      ],
      "name": "burn",
      "outputs": [
        {
          "internalType": "bool",
          "name": "",
          "type": "bool"
        }
      ],
      "stateMutability": "nonpayable",
      "type": "function"
    },
    {
      "inputs": [
        {
          "internalType": "uint256",
          "name": "tokenId",
          "type": "uint256"
        }
      ],
      "name": "getApproved",
      "outputs": [
        {
          "internalType": "address",
          "name": "",
          "type": "address"
        }
      ],
      "stateMutability": "view",
      "type": "function"
    },
    {
      "inputs": [
        {
          "internalType": "address",
          "name": "owner",
          "type": "address"
        },
        {
          "internalType": "address",
          "name": "operator",
          "type": "address"
        }
      ],
      "name": "isApprovedForAll",
      "outputs": [
        {
          "internalType": "bool",
          "name": "",
          "type": "bool"
        }
      ],
      "stateMutability": "view",
      "type": "function"
    },
    {
      "inputs": [
        {
          "internalType": "address",
          "name": "account",
          "type": "address"
        },
        {
          "internalType": "uint256",
          "name": "tokenId",
          "type": "uint256"
        }
      ],
      "name": "mint",
      "outputs": [
        {
          "internalType": "bool",
          "name": "",
          "type": "bool"
        }
      ],
      "stateMutability": "nonpayable",
      "type": "function"
    },
    {
      "inputs": [],
      "name": "name",
      "outputs": [
        {
          "internalType": "string",
          "name": "",
          "type": "string"
        }
      ],
      "stateMutability": "view",
      "type": "function"
    },
    {
      "inputs": [
        {
          "internalType": "uint256",
          "name": "tokenId",
          "type": "uint256"
        }
      ],
      "name": "ownerOf",
      "outputs": [
        {
          "internalType": "address",
          "name": "",
          "type": "address"
        }
      ],
      "stateMutability": "view",
      "type": "function"
    },
    {
      "inputs": [],
      "name": "pool",
      "outputs": [
        {
          "internalType": "address",
          "name": "",
          "type": "address"
        }
      ],
      "stateMutability": "view",
      "type": "function"
    },
    {
      "inputs": [
        {
          "internalType": "address",
          "name": "from",
          "type": "address"
        },
        {
          "internalType": "address",
          "name": "to",
          "type": "address"
        },
        {
          "internalType": "uint256",
          "name": "tokenId",
          "type": "uint256"
        }
      ],
      "name": "safeTransferFrom",
      "outputs": [],
      "stateMutability": "nonpayable",
      "type": "function"
    },
    {
      "inputs": [
        {
          "internalType": "address",
          "name": "from",
          "type": "address"
        },
        {
          "internalType": "address",
          "name": "to",
          "type": "address"
        },
        {
          "internalType": "uint256",
          "name": "tokenId",
          "type": "uint256"
        },
        {
          "internalType": "bytes",
          "name": "data",
          "type": "bytes"
        }
      ],
      "name": "safeTransferFrom",
      "outputs": [],
      "stateMutability": "nonpayable",
      "type": "function"
    },
    {
      "inputs": [
        {
          "internalType": "address",
          "name": "operator",
          "type": "address"
        },
        {
          "internalType": "bool",
          "name": "approved",
          "type": "bool"
        }
      ],
      "name": "setApprovalForAll",
      "outputs": [],
      "stateMutability": "nonpayable",
      "type": "function"
    },
    {
      "inputs": [
        {
          "internalType": "bytes4",
          "name": "interfaceId",
          "type": "bytes4"
        }
      ],
      "name": "supportsInterface",
      "outputs": [
        {
          "internalType": "bool",
          "name": "",
          "type": "bool"
        }
      ],
      "stateMutability": "view",
      "type": "function"
    },
    {
      "inputs": [],
      "name": "symbol",
      "outputs": [
        {
          "internalType": "string",
          "name": "",
          "type": "string"
        }
      ],
      "stateMutability": "view",
      "type": "function"
    },
    {
      "inputs": [
        {
          "internalType": "uint256",
          "name": "tokenId",
          "type": "uint256"
        }
      ],
      "name": "tokenURI",
      "outputs": [
        {
          "internalType": "string",
          "name": "",
          "type": "string"
        }
      ],
      "stateMutability": "view",
      "type": "function"
    },
    {
      "inputs": [
        {
          "internalType": "address",
          "name": "from",
          "type": "address"
        },
        {
          "internalType": "address",
          "name": "to",
          "type": "address"
        },
        {
          "internalType": "uint256",
          "name": "tokenId",
          "type": "uint256"
        }
      ],
      "name": "transferFrom",
      "outputs": [],
      "stateMutability": "nonpayable",
      "type": "function"
    }
  ],
  "bytecode": "0x60806040523480156200001157600080fd5b5060405162001361380380620013618339810160408190526200003491620001e9565b8251839083906200004d90600090602085019062000090565b5080516200006390600190602084019062000090565b5050600680546001600160a01b0319166001600160a01b03939093169290921790915550620002c5915050565b8280546200009e9062000272565b90600052602060002090601f016020900481019282620000c257600085556200010d565b82601f10620000dd57805160ff19168380011785556200010d565b828001600101855582156200010d579182015b828111156200010d578251825591602001919060010190620000f0565b506200011b9291506200011f565b5090565b5b808211156200011b576000815560010162000120565b600082601f83011262000147578081fd5b81516001600160401b0380821115620001645762000164620002af565b604051601f8301601f19908116603f011681019082821181831017156200018f576200018f620002af565b81604052838152602092508683858801011115620001ab578485fd5b8491505b83821015620001ce5785820183015181830184015290820190620001af565b83821115620001df57848385830101525b9695505050505050565b600080600060608486031215620001fe578283fd5b83516001600160401b038082111562000215578485fd5b620002238783880162000136565b9450602086015191508082111562000239578384fd5b50620002488682870162000136565b604086015190935090506001600160a01b038116811462000267578182fd5b809150509250925092565b600181811c908216806200028757607f821691505b60208210811415620002a957634e487b7160e01b600052602260045260246000fd5b50919050565b634e487b7160e01b600052604160045260246000fd5b61108c80620002d56000396000f3fe608060405234801561001057600080fd5b50600436106101005760003560e01c806342966c6811610097578063a22cb46511610066578063a22cb4651461021d578063b88d4fde14610230578063c87b56dd14610244578063e985e9c51461025757600080fd5b806342966c68146101ce5780636352211e146101e157806370a08231146101f457806395d89b411461021557600080fd5b806316f0115b116100d357806316f0115b1461018257806323b872dd1461019557806340c10f19146101a857806342842e0e146101bb57600080fd5b806301ffc9a71461010557806306fdde031461012d578063081812fc14610142578063095ea7b31461016d575b600080fd5b610118610113366004610e99565b610293565b60405190151581526020015b60405180910390f35b6101356102e5565b6040516101249190610f08565b610155610150366004610ec1565b610377565b6040516001600160a01b039091168152602001610124565b61018061017b366004610e70565b610411565b005b600654610155906001600160a01b031681565b6101806101a3366004610d26565b505050565b6101186101b6366004610e70565b610522565b6101806101c9366004610d26565b6105d1565b6101186101dc366004610ec1565b6105e5565b6101556101ef366004610ec1565b610683565b610207610202366004610cda565b6106fa565b604051908152602001610124565b610135610781565b61018061022b366004610e36565b610790565b61018061023e366004610d61565b50505050565b610135610252366004610ec1565b61079f565b610118610265366004610cf4565b6001600160a01b03918216600090815260056020908152604080832093909416825291909152205460ff1690565b60006001600160e01b031982166380ac58cd60e01b14806102c457506001600160e01b03198216635b5e139f60e01b145b806102df57506301ffc9a760e01b6001600160e01b03198316145b92915050565b6060600080546102f490610faa565b80601f016020809104026020016040519081016040528092919081815260200182805461032090610faa565b801561036d5780601f106103425761010080835404028352916020019161036d565b820191906000526020600020905b81548152906001019060200180831161035057829003601f168201915b5050505050905090565b6000818152600260205260408120546001600160a01b03166103f55760405162461bcd60e51b815260206004820152602c60248201527f4552433732313a20617070726f76656420717565727920666f72206e6f6e657860448201526b34b9ba32b73a103a37b5b2b760a11b60648201526084015b60405180910390fd5b506000908152600460205260409020546001600160a01b031690565b600061041c82610683565b9050806001600160a01b0316836001600160a01b0316141561048a5760405162461bcd60e51b815260206004820152602160248201527f4552433732313a20617070726f76616c20746f2063757272656e74206f776e656044820152603960f91b60648201526084016103ec565b336001600160a01b03821614806104a657506104a68133610265565b6105185760405162461bcd60e51b815260206004820152603860248201527f4552433732313a20617070726f76652063616c6c6572206973206e6f74206f7760448201527f6e6572206e6f7220617070726f76656420666f7220616c6c000000000000000060648201526084016103ec565b6101a38383610887565b6006546000906001600160a01b0316331461057b5760405162461bcd60e51b81526020600482015260196024820152782632bb32b92b18a2a9219b9918a61d103737ba1037bbb732b960391b60448201526064016103ec565b61058583836108f5565b826001600160a01b03167f0f6798a560793a54c3bcfe86a93cde1e73087d944c0ea20544137d4121396885836040516105c091815260200190565b60405180910390a250600192915050565b604080516020810190915260009052505050565b6006546000906001600160a01b0316331461063e5760405162461bcd60e51b81526020600482015260196024820152782632bb32b92b18a2a9219b9918a61d103737ba1037bbb732b960391b60448201526064016103ec565b61064782610a37565b6040518281527fb90306ad06b2a6ff86ddc9327db583062895ef6540e62dc50add009db5b356eb9060200160405180910390a15060015b919050565b6000818152600260205260408120546001600160a01b0316806102df5760405162461bcd60e51b815260206004820152602960248201527f4552433732313a206f776e657220717565727920666f72206e6f6e657869737460448201526832b73a103a37b5b2b760b91b60648201526084016103ec565b60006001600160a01b0382166107655760405162461bcd60e51b815260206004820152602a60248201527f4552433732313a2062616c616e636520717565727920666f7220746865207a65604482015269726f206164647265737360b01b60648201526084016103ec565b506001600160a01b031660009081526003602052604090205490565b6060600180546102f490610faa565b61079b338383610ad2565b5050565b6000818152600260205260409020546060906001600160a01b031661081e5760405162461bcd60e51b815260206004820152602f60248201527f4552433732314d657461646174613a2055524920717565727920666f72206e6f60448201526e3732bc34b9ba32b73a103a37b5b2b760891b60648201526084016103ec565b600061083560408051602081019091526000815290565b905060008151116108555760405180602001604052806000815250610880565b8061085f84610ba1565b604051602001610870929190610ed9565b6040516020818303038152906040525b9392505050565b600081815260046020526040902080546001600160a01b0319166001600160a01b03841690811790915581906108bc82610683565b6001600160a01b03167f8c5be1e5ebec7d5bd14f71427d1e84f3dd0314c0f7b2291e5b200ac8c7c3b92560405160405180910390a45050565b6001600160a01b03821661094b5760405162461bcd60e51b815260206004820181905260248201527f4552433732313a206d696e7420746f20746865207a65726f206164647265737360448201526064016103ec565b6000818152600260205260409020546001600160a01b0316156109b05760405162461bcd60e51b815260206004820152601c60248201527f4552433732313a20746f6b656e20616c7265616479206d696e7465640000000060448201526064016103ec565b6001600160a01b03821660009081526003602052604081208054600192906109d9908490610f3b565b909155505060008181526002602052604080822080546001600160a01b0319166001600160a01b03861690811790915590518392907fddf252ad1be2c89b69c2b068fc378daa952ba7f163c4a11628f55a4df523b3ef908290a45050565b6000610a4282610683565b9050610a4f600083610887565b6001600160a01b0381166000908152600360205260408120805460019290610a78908490610f67565b909155505060008281526002602052604080822080546001600160a01b0319169055518391906001600160a01b038416907fddf252ad1be2c89b69c2b068fc378daa952ba7f163c4a11628f55a4df523b3ef908390a45050565b816001600160a01b0316836001600160a01b03161415610b345760405162461bcd60e51b815260206004820152601960248201527f4552433732313a20617070726f766520746f2063616c6c65720000000000000060448201526064016103ec565b6001600160a01b03838116600081815260056020908152604080832094871680845294825291829020805460ff191686151590811790915591519182527f17307eab39ab6107e8899845ad3d59bd9653f200f220920489ca2b5937696c31910160405180910390a3505050565b606081610bc55750506040805180820190915260018152600360fc1b602082015290565b8160005b8115610bef5780610bd981610fe5565b9150610be89050600a83610f53565b9150610bc9565b60008167ffffffffffffffff811115610c1857634e487b7160e01b600052604160045260246000fd5b6040519080825280601f01601f191660200182016040528015610c42576020820181803683370190505b5090505b8415610cbb57610c57600183610f67565b9150610c64600a86611000565b610c6f906030610f3b565b60f81b818381518110610c9257634e487b7160e01b600052603260045260246000fd5b60200101906001600160f81b031916908160001a905350610cb4600a86610f53565b9450610c46565b949350505050565b80356001600160a01b038116811461067e57600080fd5b600060208284031215610ceb578081fd5b61088082610cc3565b60008060408385031215610d06578081fd5b610d0f83610cc3565b9150610d1d60208401610cc3565b90509250929050565b600080600060608486031215610d3a578081fd5b610d4384610cc3565b9250610d5160208501610cc3565b9150604084013590509250925092565b60008060008060808587031215610d76578081fd5b610d7f85610cc3565b9350610d8d60208601610cc3565b925060408501359150606085013567ffffffffffffffff80821115610db0578283fd5b818701915087601f830112610dc3578283fd5b813581811115610dd557610dd5611040565b604051601f8201601f19908116603f01168101908382118183101715610dfd57610dfd611040565b816040528281528a6020848701011115610e15578586fd5b82602086016020830137918201602001949094529598949750929550505050565b60008060408385031215610e48578182fd5b610e5183610cc3565b915060208301358015158114610e65578182fd5b809150509250929050565b60008060408385031215610e82578182fd5b610e8b83610cc3565b946020939093013593505050565b600060208284031215610eaa578081fd5b81356001600160e01b031981168114610880578182fd5b600060208284031215610ed2578081fd5b5035919050565b60008351610eeb818460208801610f7e565b835190830190610eff818360208801610f7e565b01949350505050565b6020815260008251806020840152610f27816040850160208701610f7e565b601f01601f19169190910160400192915050565b60008219821115610f4e57610f4e611014565b500190565b600082610f6257610f6261102a565b500490565b600082821015610f7957610f79611014565b500390565b60005b83811015610f99578181015183820152602001610f81565b8381111561023e5750506000910152565b600181811c90821680610fbe57607f821691505b60208210811415610fdf57634e487b7160e01b600052602260045260246000fd5b50919050565b6000600019821415610ff957610ff9611014565b5060010190565b60008261100f5761100f61102a565b500690565b634e487b7160e01b600052601160045260246000fd5b634e487b7160e01b600052601260045260246000fd5b634e487b7160e01b600052604160045260246000fdfea2646970667358221220af398e1a2ece200519359f94599d339d146893103f180523d7c3022c874cfa8364736f6c63430008040033",
  "linkReferences": {},
  "deployedLinkReferences": {}
}